{
  "_format": "hh-sol-artifact-1",
  "contractName": "ReportLedger",
  "sourceName": "contracts/ReportLedger.sol",
  "abi": [
    {
      "inputs": [
        {
          "internalType": "string",
          "name": "_filename",
          "type": "string"
        },
        {
          "internalType": "string",
          "name": "_hash",
          "type": "string"
        }
      ],
      "name": "addReport",
      "outputs": [],
      "stateMutability": "nonpayable",
      "type": "function"
    },
    {
      "inputs": [],
      "name": "getReports",
      "outputs": [
        {
          "components": [
            {
              "internalType": "string",
              "name": "filename",
              "type": "string"
            },
            {
              "internalType": "string",
              "name": "hash",
              "type": "string"
            },
            {
              "internalType": "address",
              "name": "uploader",
              "type": "address"
            }
          ],
          "internalType": "struct ReportLedger.Report[]",
          "name": "",
          "type": "tuple[]"
        }
      ],
      "stateMutability": "view",
      "type": "function"
    },
    {
      "inputs": [
        {
          "internalType": "uint256",
          "name": "",
          "type": "uint256"
        }
      ],
      "name": "reports",
      "outputs": [
        {
          "internalType": "string",
          "name": "filename",
          "type": "string"
        },
        {
          "internalType": "string",
          "name": "hash",
          "type": "string"
        },
        {
          "internalType": "address",
          "name": "uploader",
          "type": "address"
        }
      ],
      "stateMutability": "view",
      "type": "function"
    }
  ],
  "bytecode": "0x6080604052348015600f57600080fd5b50610cac8061001f6000396000f3fe608060405234801561001057600080fd5b50600436106100415760003560e01c80637a3e006614610046578063a3c86daf14610062578063c942adf714610080575b600080fd5b610060600480360381019061005b9190610624565b6100b2565b005b61006a610187565b6040516100779190610875565b60405180910390f35b61009a600480360381019061009591906108cd565b610360565b6040516100a993929190610953565b60405180910390f35b600060405180606001604052808481526020018381526020013373ffffffffffffffffffffffffffffffffffffffff16815250908060018154018082558091505060019003906000526020600020906003020160009091909190915060008201518160000190816101239190610ba4565b5060208201518160010190816101399190610ba4565b5060408201518160020160006101000a81548173ffffffffffffffffffffffffffffffffffffffff021916908373ffffffffffffffffffffffffffffffffffffffff16021790555050505050565b60606000805480602002602001604051908101604052809291908181526020016000905b8282101561035757838290600052602060002090600302016040518060600160405290816000820180546101de906109c7565b80601f016020809104026020016040519081016040528092919081815260200182805461020a906109c7565b80156102575780601f1061022c57610100808354040283529160200191610257565b820191906000526020600020905b81548152906001019060200180831161023a57829003601f168201915b50505050508152602001600182018054610270906109c7565b80601f016020809104026020016040519081016040528092919081815260200182805461029c906109c7565b80156102e95780601f106102be576101008083540402835291602001916102e9565b820191906000526020600020905b8154815290600101906020018083116102cc57829003601f168201915b505050505081526020016002820160009054906101000a900473ffffffffffffffffffffffffffffffffffffffff1673ffffffffffffffffffffffffffffffffffffffff1673ffffffffffffffffffffffffffffffffffffffff1681525050815260200190600101906101ab565b50505050905090565b6000818154811061037057600080fd5b9060005260206000209060030201600091509050806000018054610393906109c7565b80601f01602080910402602001604051908101604052809291908181526020018280546103bf906109c7565b801561040c5780601f106103e15761010080835404028352916020019161040c565b820191906000526020600020905b8154815290600101906020018083116103ef57829003601f168201915b505050505090806001018054610421906109c7565b80601f016020809104026020016040519081016040528092919081815260200182805461044d906109c7565b801561049a5780601f1061046f5761010080835404028352916020019161049a565b820191906000526020600020905b81548152906001019060200180831161047d57829003601f168201915b5050505050908060020160009054906101000a900473ffffffffffffffffffffffffffffffffffffffff16905083565b6000604051905090565b600080fd5b600080fd5b600080fd5b600080fd5b6000601f19601f8301169050919050565b7f4e487b7100000000000000000000000000000000000000000000000000000000600052604160045260246000fd5b610531826104e8565b810181811067ffffffffffffffff821117156105505761054f6104f9565b5b80604052505050565b60006105636104ca565b905061056f8282610528565b919050565b600067ffffffffffffffff82111561058f5761058e6104f9565b5b610598826104e8565b9050602081019050919050565b82818337600083830152505050565b60006105c76105c284610574565b610559565b9050828152602081018484840111156105e3576105e26104e3565b5b6105ee8482856105a5565b509392505050565b600082601f83011261060b5761060a6104de565b5b813561061b8482602086016105b4565b91505092915050565b6000806040838503121561063b5761063a6104d4565b5b600083013567ffffffffffffffff811115610659576106586104d9565b5b610665858286016105f6565b925050602083013567ffffffffffffffff811115610686576106856104d9565b5b610692858286016105f6565b9150509250929050565b600081519050919050565b600082825260208201905092915050565b6000819050602082019050919050565b600081519050919050565b600082825260208201905092915050565b60005b838110156107025780820151818401526020810190506106e7565b60008484015250505050565b6000610719826106c8565b61072381856106d3565b93506107338185602086016106e4565b61073c816104e8565b840191505092915050565b600073ffffffffffffffffffffffffffffffffffffffff82169050919050565b600061077282610747565b9050919050565b61078281610767565b82525050565b600060608301600083015184820360008601526107a5828261070e565b915050602083015184820360208601526107bf828261070e565b91505060408301516107d46040860182610779565b508091505092915050565b60006107eb8383610788565b905092915050565b6000602082019050919050565b600061080b8261069c565b61081581856106a7565b935083602082028501610827856106b8565b8060005b85811015610863578484038952815161084485826107df565b945061084f836107f3565b925060208a0199505060018101905061082b565b50829750879550505050505092915050565b6000602082019050818103600083015261088f8184610800565b905092915050565b6000819050919050565b6108aa81610897565b81146108b557600080fd5b50565b6000813590506108c7816108a1565b92915050565b6000602082840312156108e3576108e26104d4565b5b60006108f1848285016108b8565b91505092915050565b600082825260208201905092915050565b6000610916826106c8565b61092081856108fa565b93506109308185602086016106e4565b610939816104e8565b840191505092915050565b61094d81610767565b82525050565b6000606082019050818103600083015261096d818661090b565b90508181036020830152610981818561090b565b90506109906040830184610944565b949350505050565b7f4e487b7100000000000000000000000000000000000000000000000000000000600052602260045260246000fd5b600060028204905060018216806109df57607f821691505b6020821081036109f2576109f1610998565b5b50919050565b60008190508160005260206000209050919050565b60006020601f8301049050919050565b600082821b905092915050565b600060088302610a5a7fffffffffffffffffffffffffffffffffffffffffffffffffffffffffffffffff82610a1d565b610a648683610a1d565b95508019841693508086168417925050509392505050565b6000819050919050565b6000610aa1610a9c610a9784610897565b610a7c565b610897565b9050919050565b6000819050919050565b610abb83610a86565b610acf610ac782610aa8565b848454610a2a565b825550505050565b600090565b610ae4610ad7565b610aef818484610ab2565b505050565b5b81811015610b1357610b08600082610adc565b600181019050610af5565b5050565b601f821115610b5857610b29816109f8565b610b3284610a0d565b81016020851015610b41578190505b610b55610b4d85610a0d565b830182610af4565b50505b505050565b600082821c905092915050565b6000610b7b60001984600802610b5d565b1980831691505092915050565b6000610b948383610b6a565b9150826002028217905092915050565b610bad826106c8565b67ffffffffffffffff811115610bc657610bc56104f9565b5b610bd082546109c7565b610bdb828285610b17565b600060209050601f831160018114610c0e5760008415610bfc578287015190505b610c068582610b88565b865550610c6e565b601f198416610c1c866109f8565b60005b82811015610c4457848901518255600182019150602085019450602081019050610c1f565b86831015610c615784890151610c5d601f891682610b6a565b8355505b6001600288020188555050505b50505050505056fea2646970667358221220c948c1c04e42ef330b9882e62edcc2fe70085e24a72bed345f11361cc321b8af64736f6c634300081c0033",
  "linkReferences": {},
  "deployedLinkReferences": {}
}